:020000040800F2
:1000000000000110190500086C0500086C050008C7
:100010006C0500086C0500086C0500080000000075
:100020000000000000000000000000006C05000857
:100030006C050008000000006C0500080D150008A4
:100040006C0500086C0500086C0500086C050008CC
:100050006C0500086C0500086C0500086C050008BC
:100060006C0500086C0500086C0500086C050008AC
:100070006C0500086C0500086C0500086C0500089C
:100080006C0500086C0500086C0500086C0500088C
:100090006C0500086C0500086C0500086C0500087C
:1000A000C91500086C0500086C0500086C050008FF
:1000B0006C0500086C0500086C0500086C0500085C
:1000C0006C0500086C0500086C0500086C0500084C
:1000D0006C0500086C0500086C0500086C0500083C
:1000E0006C0500086C0500086C0500086C0500082C
:1000F0006C0500086C0500086C0500086C0500081C
:100100006C0500086C0500086C0500086C0500080B
:100110006C0500086C0500086C0500086C050008FB
:100120006C050008191500086C0500086C0500082E
:100130006C0500086C0500086C0500086C050008DB
:100140006C0500086C0500086C0500086C050008CB
:100150006C0500086C0500086C0500086C050008BB
:100160006C0500086C0500086C0500086C050008AB
:100170006C05000841160008711500086C050008A0
:100180006C0500086C0500086C0500086C0500088B
:100190006C0500086C0500086C0500086C0500087B
:0C01A0006C0500086C0500086C050008E8
:1001AC0010B5054C237833B9044B13B10448AFF3A5
:1001BC0000800123237010BD603A01200000000074
:1001CC001C71000808B5034B1BB103490348AFF37E
:1001DC00008008BD00000000643A01201C7100087A
:1001EC0053B94AB9002908BF00281CBF4FF0FF3192
:1001FC004FF0FF3000F088B9ADF1080C6DE904CE7A
:10020C0000F006F8DDF804E0DDE9022304B07047E5
:10021C002DE9F047089D8E4604468846002B4AD1AE
:10022C008A42174662D9B2FA82F64EB1C6F1200361
:10023C0001FA06F820FA03F3B74043EA0808B44081
:10024C004FEA174E1FFA87FCB8FBFEF1230C0EFB8E
:10025C00118843EA084301FB0CF29A4209D9FB18B6
:10026C0001F1FF3080F0EA809A4240F2E7800239D7
:10027C003B449A1AA3B2B2FBFEF00EFB102243EAE7
:10028C00024300FB0CFC9C4509D9FB1800F1FF3222
:10029C0080F0D6809C4540F2D3803B44023840EA43
:1002AC000140A3EB0C0300211DB1F3400022C5E972
:1002BC000032BDE8F0878B4205D90DB1C5E90001CC
:1002CC0000210846F5E7B3FA83F1002946D17345BE
:1002DC0002D3824200F20581841A6EEB03020120E4
:1002EC009046002DE5D0C5E90048E2E7002A00F071
:1002FC009080B2FA82F6002E40F0A4808A1A030C89
:10030C004FEA174E80B2BCB20121B2FBFEFC0EFBD1
:10031C001C2243EA024304FB0CF29A4207D9FB1855
:10032C000CF1FF3802D29A4200F2E080C4469B1ACC
:10033C00B3FBFEF20EFB123340EA034302FB04F460
:10034C009C4207D9FB1802F1FF3002D29C4200F20A
:10035C00CA8002461B1B42EA0C40A5E7C1F12006ED
:10036C008B4022FA06F71F430EFA01F420FA06F32B
:10037C002EFA06FE4FEA1749234300FA01F81FFA3A
:10038C0087FCBEFBF9F01C0C09FB10EE44EA0E4492
:10039C0000FB0CFEA64502FA01F209D93C1900F14A
:1003AC00FF3A80F09C80A64540F2998002383C448C
:1003BC00A4EB0E041FFA83FEB4FBF9F309FB134400
:1003CC004EEA044403FB0CFCA44508D93C1903F188
:1003DC00FF3E80F08280A4457FD9023B3C4443EA37
:1003EC000040A4EB0C04A0FB02EC64457346E14610
:1003FC0062D35FD05DB1B8EB030264EB090404FA7D
:10040C0006F622FA01F31E43CC40C5E90064002134
:10041C004FE7B1FBF2FC010C41EA0E4180B240EA1D
:10042C0001423B4638463C46B846BE462026B1FB08
:10043C00F7F1A2EB080241EA0C4166E7014618E726
:10044C0010462CE7C6F120022EFA02F3B740B14059
:10045C0020FA02F24FEA174E0A43B3FBFEF8BCB285
:10046C000EFB1833110C41EA034108FB04F9B040B0
:10047C0089454FEA104380B23ED9791808F1FF3C08
:10048C0001D289451FD8A1EB0901B1FBFEF909FB8B
:10049C0004F80EFB191192B242EA0142424529D2EC
:1004AC00BA1809F1FF31C4D24245C2D2A9F10201F6
:1004BC003A44BEE7F0459DD2BEEB02036CEB070C51
:1004CC000138E14696E7A7EB09094944A8F1020C6B
:1004DC00B1FBFEF909FB04F8DBE773467FE75046F6
:1004EC0066E70846FDE63B44023A33E7ACF1020C02
:1004FC003B441CE749469CE7A1EB0901C446B1FB10
:10050C00FEF909FB04F8C4E7704700BF0E488546A6
:10051C000E480F490F4A884200D304E052F8043BBE
:10052C0040F8043BF7E70C480C490022884200D302
:10053C0002E040F8042BF9E705F004FB06F0C4FDDB
:10054C0000F00FF8FEE70000000001100000002092
:10055C00D8000020BC710008603A01200043012043
:10056C00FEE780B500AF01F02FFD00F0F3FB00F0CB
:10057C0049FF00F077F800F063FC00F061FD00F03B
:10058C00BFFD00F0F5FD01F059FC00F043FE00F05A
:10059C009DFE03E000F094FD01F0AAFC01F07CFC50
:1005AC00034683F00103DBB2002BF3D100F078FE9D
:1005BC0000F086FD01F09CFC00F0F2F800BFF7E7BC
:1005CC0080B483B000AFEFF310833B603B687B607B
:1005DC0072B600BF7B6818460C37BD465DF8047BCD
:1005EC00704780B485B000AF78607B68FB60FB68B7
:1005FC0083F3108800BF00BF1437BD465DF8047B41
:10060C007047000080B582B000AFFFF7D9FF78606B
:10061C00064B1B887B80054B00221A807868FFF7FD
:10062C00E0FF7B8818460837BD4680BDA03A012004
:10063C0080B584B000AF0346FB80FFF7C1FFF860C4
:10064C00074B1B889AB2FB8813439AB2044B1A804F
:10065C00F868FFF7C6FF00BF1037BD4680BD00BF6E
:10066C00A03A012080B500AF164A0021164806F0CA
:10067C0023FD164800F056FE154800F053FE154BAE
:10068C0000221A70134B01225A7002210F4800F0FD
:10069C005CFE03210D4800F058FE0F4B00221A603F
:1006AC000E4B00221A600E494FF000024FF000036F
:1006BC00C1E900230B4B00221A800B4B00221A704D
:1006CC0000BF80BD80390100E00000207C3A012091
:1006DC00843A01208C3A0120903A0120943A01206E
:1006EC00983A0120A03A0120A23A012080B400AF30
:1006FC00054B00221A70044B01225A7000BFBD46F4
:10070C005DF8047B704700BF8C3A012080B500AFC8
:10071C00074B01221A70074B00221A6000F09AFE58
:10072C0002460B460449C1E9002300BF80BD00BF4F
:10073C00A23A0120903A0120983A012080B500AFEE
:10074C00064B1B680133054A136000F083FE02461A
:10075C000B460349C1E9002300BF80BD943A012038
:10076C00983A012080B582B000AF0346FB80FB882D
:10077C0043F010039BB21846FFF75AFF00BF08372F
:10078C00BD4680BD80B582B000AF0346FB80FB88C0
:10079C001846FFF74DFF00BF0837BD4680BD00006F
:1007AC00B0B582B000AF134B1B78DBB283F0010302
:1007BC00DBB2002B1AD100F04DFEC7E900010E4B45
:1007CC00D3E90023D7E90001841A61EB030540F259
:1007DC00DD539C4275F1000309D30820FFF728FF75
:1007EC000549D7E90023C1E9002300E000BF083721
:1007FC00BD46B0BDA23A0120983A012080B58AB01E
:10080C0000AF434B1B6803F40023002B01D00123E2
:10081C0000E000233B623B6A83F00103FB613D4A2D
:10082C00FB6913441B78FB76FF237B76FFF7EAFE0C
:10083C000346FB8400F0F8F80346012B03D9FB8C2C
:10084C0043F00403FB8407F119031946324800F006
:10085C00A4FD0346BB76BB7E83F00103DBB2002B09
:10086C0005D00120FFF7E4FEFB7E7B762EE02B4BC0
:10087C001B683B602A4B1B687B60284B1B689BB238
:10088C0003F001039BB23B81FB8C7B8100F0E2FD0A
:10089C0002460B46C7E90423FB7E184600F0DAF843
:1008AC0002463B461946104600F0FEF8FB7E194600
:1008BC001C4800F04AFD034683F00103DBB2002B19
:1008CC0004D00120FFF7B4FEFB7E7B76797E114AC3
:1008DC00FB6913440A461A70FB69002B07D17B7E17
:1008EC00184600F0CBF80246094BDA6006E07B7E36
:1008FC00184600F0C3F80246054B1A61074B1B68FB
:10090C000133064A136000BF2837BD4680BD00BFC7
:10091C00286402408C3A01207C3A0120903A012054
:10092C00943A0120843A012080B582B000AF7860FF
:10093C000220FFF717FF00BF0837BD4680BD00003F
:10094C0080B584B000AF7860FFF73AFEF860796844
:10095C00064800F022FD0346FB72F868FFF741FEE3
:10096C00FB7A18461037BD4680BD00BF843A012083
:10097C0080B584B000AF0346FB71FFF721FEF86031
:10098C00144B9B79032B15D8124B1B790333DBB219
:10099C0003F00303DAB20F4B1A710E4B1B79194695
:1009AC000C4AFB7953540B4B9B790133DAB2094B4C
:1009BC009A7107E0084B1B889BB243F001039AB273
:1009CC00054B1A80F868FFF70CFE00BF1037BD46C8
:1009DC0080BD00BF843A0120A03A012080B584B0CC
:1009EC0000AF0346FB71FFF7EBFDF860FB7919468E
:1009FC000B4800F0AAFC034683F00103DBB2002B8A
:100A0C0007D0084B1B889BB243F001039AB2054BED
:100A1C001A80F868FFF7E5FD00BF1037BD4680BDB2
:100A2C007C3A0120A03A012080B582B000AFFFF7DC
:100A3C00C7FD7860064800F0D8FC0346FB70786868
:100A4C00FFF7CFFDFB7818460837BD4680BD00BFC9
:100A5C00843A012080B483B000AF0346FB71FB796C
:100A6C0044F6606202FB03F3034A134418460C3746
:100A7C00BD465DF8047B7047E000002080B483B075
:100A8C0000AF0346FB71FB7944F6606202FB03F393
:100A9C004033044A134418460C37BD465DF8047BBA
:100AAC00704700BFE000002080B584B000AF7860D4
:100ABC0039607B68FB6040220021F86806F0FCFA84
:100ACC00FB68002242F052021A70002242F04102EE
:100ADC005A70002242F044029A70002242F05202F4
:100AEC00DA70FB68002242F001021A7100225A717E
:100AFC00FB68002242F040029A710022DA71FB6816
:100B0C00002242F060021A72002242F04E025A7227
:100B1C0000229A720022DA723B681A68FB68DA606B
:100B2C003B681B685A08FB681A613B681A89FB68AA
:100B3C009A823B685A89FB68DA82FB68002262F071
:100B4C007F021A76002262F069025A76002262F065
:100B5C0067029A760022DA76FB68002242F01002D5
:100B6C001A77002242F027025A7700229A77002245
:100B7C00DA77FB68002242F00C0283F82020002276
:100B8C0083F82120FB68002242F0030283F8222024
:100B9C00002283F823203B68D3E90423F9684A62D6
:100BAC008B623B685A68FB68DA6200BF1037BD463F
:100BBC0080BD80B58AB000AFF860B9607A603B60E8
:100BCC0007F1140300221A605A609A60DA601A6105
:100BDC00BB687B610223BB613B68FB6103233B6207
:100BEC007B687B6207F114031946F86801F0ACFBD3
:100BFC0000BF2837BD4680BD80B58AB000AFF86015
:100C0C00B9601346FB7107F1140300221A605A6095
:100C1C009A60DA601A61BB689BB2FA791946F86877
:100C2C0001F056FDBB687B610123BB610023FB61B6
:100C3C0000233B6207F114031946F86801F084FBAA
:100C4C0000BF2837BD4680BD80B58AB000AFF860C4
:100C5C00B9607A6007F1140300221A605A609A6036
:100C6C00DA601A61BB687B610023BB617B68FB6146
:100C7C0007F114031946F86801F066FB00BF28372A
:100C8C00BD4680BD80B588B000AF7860396007F193
:100C9C000C0300221A605A609A60DA601A613B6891
:100CAC00FB6003233B6100237B6107F10C031946B6
:100CBC00786801F049FB00BF2037BD4680BD0000BD
:100CCC0080B584B000AF0346FB71FB79FB73FB7BF3
:100CDC001A464FF40051084801F0FAFCFB7B1A4607
:100CEC000121064801F0F4FC054AFB79137000BFA2
:100CFC001037BD4680BD00BF000C02400010024002
:100D0C00A33A012080B582B000AF00237B60104B6A
:100D1C005B6C0F4A43F4804353640D4B5B6C03F4E0
:100D2C0080437B607B6800233B60094B1B6C084A4B
:100D3C0043F080531364064B1B6C03F080533B60F1
:100D4C003B68032001F0BEFA00BF0837BD4680BDEA
:100D5C000038024080B594B000AF07F12003302278
:100D6C000021184606F0A8F907F10C0300221A60BE
:100D7C005A609A60DA601A610023BB602E4B1B6CC0
:100D8C002D4A43F0805313642B4B1B6C03F08053A0
:100D9C00BB60BB6800237B60284B1B68274A43F46D
:100DAC0040431360254B1B6803F440437B607B6816
:100DBC0001233B624FF4A0237B620223BB634FF4FD
:100DCC008003FB6314233B644FF4A8737B640223FE
:100DDC00BB640723FB6407F12003184602F0CCFE2A
:100DEC000346002B03D041F2010000F093FA0F23CD
:100DFC00FB6002233B6100237B614FF4A053BB617A
:100E0C004FF48053FB6107F10C030521184603F0E6
:100E1C002BF90346002B03D041F2020000F07AFAC2
:100E2C004FF080624FF48001002003F003FA00BF02
:100E3C005037BD4680BD00BF0038024000700040F6
:100E4C0080B58CB000AF07F11C0300221A605A6009
:100E5C009A60DA601A61734B00221A700023BB612E
:100E6C00714B1B6B704A43F0010313636E4B1B6B8E
:100E7C0003F00103BB61BB6900237B616A4B1B6BF5
:100E8C00694A43F002031363674B1B6B03F00203C5
:100E9C007B617B6900233B61634B1B6B624A43F0B4
:100EAC0004031363604B1B6B03F004033B613B694E
:100EBC000023FB605C4B1B6B5B4A43F00803136322
:100ECC00594B1B6B03F00803FB60FB680023BB60F2
:100EDC00554B1B6B544A43F010031363524B1B6B63
:100EEC0003F01003BB60BB6800237B604E4B1B6B95
:100EFC004D4A43F0800313634B4B1B6B03F0800391
:100F0C007B607B681023FB6101233B6200237B62C7
:100F1C000023BB6207F11C031946444801F014FA84
:100F2C0000221021414801F0D3FB002202213F484E
:100F3C00FFF762FE002204213C48FFF75DFE002211
:100F4C004FF480513A48FFF757FE00224FF40051FE
:100F5C003748FFF751FE002201213648FFF74CFEBF
:100F6C00002280213348FFF747FE00224FF48051C6
:100F7C003048FFF741FE012202212E48FFF73CFECC
:100F8C0000224FF400612B48FFF75EFE00224FF465
:100F9C0000612748FFF758FE10212748FFF772FE23
:100FAC0000230A2228212148FFF703FE00230022F8
:100FBC004FF480711D48FFF7FCFD00230A2243F615
:100FCC0023411E48FFF7F5FD00230A220D211A4884
:100FDC00FFF7EFFD00230D224FF410711348FFF7BC
:100FEC00E8FD00230D224FF460711448FFF7E1FD7A
:100FFC0000230D224FF4FC510F48FFF7DAFD0023BC
:10100C000D224C210A48FFF7D4FD02230322202194
:10101C000848FFF7CEFD00F053F800BF3037BD464F
:10102C0080BD00BFA33A01200038024000000240FE
:10103C00000C024000100240000802400004024074
:10104C0080B586B000AF3B1D00221A605A609A60D2
:10105C00DA601A6100233B60174B1B6B164A43F096
:10106C0010031363144B1B6B03F010033B603B68C2
:10107C004FF400537B600123BB600023FB60002313
:10108C003B613B1D19460D4801F05EF900224FF4FF
:10109C0000510A4801F01CFB012001F007F8012265
:1010AC004FF40051054801F013FB052000F0FEFF42
:1010BC0000BF1837BD4680BD00380240001002400A
:1010CC0080B582B000AF4FF400610B4801F0E8FA34
:1010DC000346012B0CBF01230023FB71074B1B782C
:1010EC00DBB2FA799A4203D0FB791846FFF7E8FD98
:1010FC0000BF0837BD4680BD00100240A33A012056
:10110C0080B483B000AF00237B60174B5B6B164A37
:10111C0043F001035363144B5B6B03F001037B60DF
:10112C007B68114B5B69104A43F0010353610E4B12
:10113C005B690D4A23F0010353610C4B4FF40662BB
:10114C001A600A4B0622DA60084B1F225A61074BC1
:10115C001B68064A43F48043136000BF0C37BD463E
:10116C005DF8047B704700BF00380240000005505A
:10117C0080B582B000AF00237B60214B1B6B204AF3
:10118C0043F4800313631E4B1B6B03F480037B60DF
:10119C007B681C4B1B681B4A23F00103136000BFC8
:1011AC00184B1B6803F00103002BF9D1164B4FF4BD
:1011BC0074629A60FFF79AFA124B144A9A600020F4
:1011CC00FFF75CFC02460F4BDA600120FFF756FC80
:1011DC0002460C4B1A610B4B41F288325A60094B98
:1011EC0087225A61074B0A4A1A60064B1B68054A4C
:1011FC0043F00103136000BF0837BD4680BD00BF3C
:10120C000038024028640240006402402800055067
:10121C001654870280B483B000AF00237B601E4B52
:10122C005B6C1D4A43F4803353641B4B5B6C03F4BF
:10123C0080337B607B68184B5B6A174A43F48033BE
:10124C005362154B5B6A144A23F480335362134B7D
:10125C0000221A60114B03229A62104B4CF250324E
:10126C00DA620E4B0D229A630C4B21229A610B4BC6
:10127C0001221A62094B54229A60084B0622DA604A
:10128C00064B00221A61054B01225A6100BF0C3734
:10129C00BD465DF8047B70470038024000400140B9
:1012AC0080B400AF084B00225A62074B00221A612F
:1012BC00054B1B68044A43F00103136000BFBD4695
:1012CC005DF8047B704700BF0040014080B500AF63
:1012DC0000220021392001F000F8392001F019F822
:1012EC00002201214E2000F0F8FF4E2001F011F8F1
:1012FC00002202214D2000F0F0FF4D2001F009F8F2
:10130C0000220321182000F0E8FF182001F001F85A
:10131C0000BF80BD80B483B000AF786072B600BFF0
:10132C0000BFFDE780B483B000AF78607B6800221B
:10133C001A717B6800225A717B6800229A7100BF77
:10134C000C37BD465DF8047B704780B483B000AFAA
:10135C0078600B46FB707B689B79032B01D90023CB
:10136C0015E07B685B7919467B68FA785A547B6880
:10137C005B790133DBB203F00303DAB27B685A7199
:10138C007B689B790133DAB27B689A71012318462A
:10139C000C37BD465DF8047B704780B483B000AF5A
:1013AC00786039607B689B79002B01D1002316E0B3
:1013BC007B681B791A467B689A5C3B681A707B6861
:1013CC001B790133DBB203F00303DAB27B681A71C9
:1013DC007B689B79013BDAB27B689A7101231846D2
:1013EC000C37BD465DF8047B704780B483B000AF0A
:1013FC0078607B689B7918460C37BD465DF8047B9A
:10140C007047000080B400AF0E4BDB680D4A43F010
:10141C008073D3600C4B00225A600B4B1B680A4A3A
:10142C0043F001031360094B00221A6008494FF086
:10143C0000024FF00003C1E9002300BFBD465DF878
:10144C00047B7047F0ED00E0001000E0A43A0120AE
:10145C00A83A01202DE9F04F89B000AFEFF31086C8
:10146C00FE60FE68FE6172B600BF204E7668BE61FB
:10147C001F4E3168BE698E4208D21E4ED6E90089D5
:10148C0009F1010544461B4EC6E90045184DBC69DF
:10149C002C60BC69002522462B46164CD4E900452D
:1014AC0042EA040139602B437B60D7E90034C7E979
:1014BC000434FB69BB60BB6883F3108800BF0E4B20
:1014CC001B680E4AA2FB03239B0C00229A469346F0
:1014DC0052465B46D7E90401FEF782FE02460B46F4
:1014EC00104619462437BD46BDE8F08F001000E0C9
:1014FC00A43A0120A83A0120D400002083DE1B432B
:10150C0080B500AF00F0B2FD00BF80BD80B582B0E9
:10151C0000AF134B1B687B6000233B607B6803F4BC
:10152C000063002B09D03B6843F400633B600C4A1A
:10153C003B689360FFF762F90EE07B6803F450732D
:10154C00002B09D03B6843F450733B60044A3B6862
:10155C0093607868FFF7E8F90837BD4680BD00BF97
:10156C000064024080B582B000AF134B1B693B6036
:10157C0000237B603B6803F00203002B06D07B68E2
:10158C0043F002037B600220FFF7FCF83B6803F09A
:10159C000403002B06D07B6843F004037B6010200F
:1015AC00FFF7F0F87B68002B02D0034A7B6853618D
:1015BC0000BF0837BD4680BD0000055080B582B025
:1015CC0000AF194B1B697B607B6803F00403002B95
:1015DC001AD0154B4FF6FB721A61144B1B6803F0B3
:1015EC000103002B10D1124B10229A610F4B1B6878
:1015FC000E4A43F0010313600B4BDB680A4A23F0DD
:10160C000403D360FFF782F87B6803F00203002B1E
:10161C0005D0054B4FF6FD721A61FFF78FF800BF2E
:10162C000837BD4680BD00BF00400140000005509A
:10163C000000024080B500AF024801F0A6F900BFDF
:10164C0080BD00BFB03A012080B485B000AF786097
:10165C007B681B68124A93421BD10023FB60114B21
:10166C001B6B104A43F0005313630E4B1B6B03F0C0
:10167C000053FB60FB680023BB600A4B1B6B094AE1
:10168C0043F080431363074B1B6B03F08043BB6039
:10169C00BB6800BF1437BD465DF8047B704700BFC4
:1016AC00000004400038024080B582B000AF786082
:1016BC00214B224A1A60204B06221A711E4B002223
:1016CC00DA711D4B01229A711B4B01225A721A4B73
:1016DC0000229A72184B0022DA72174B00221A73EE
:1016EC00154B00229A73144B0022DA73124A7B6852
:1016FC00C2F8E0347B68104AC3F8C8220E4801F0E7
:10170C0000F80346002B01D0032310E04FF4807146
:10171C00094802F014FA80220021074802F0C8F9A7
:10172C004FF420720121044802F0C2F9002318463C
:10173C000837BD4680BD00BFB03A01200000044010
:10174C0080B584B000AF78607B68D3F8C832184697
:10175C0001F0E6F80346FB73FB7B002B01D1002361
:10176C0000E0032318461037BD4680BD80B584B019
:10177C0000AF7860084611461A460346FB700B46CC
:10178C00BB7013463B807B68D3F8C802BB783A88A1
:10179C00F97801F0BFFD0346FB73FB7B002B01D1F5
:1017AC00002300E0032318461037BD4680BD80B5EA
:1017BC0084B000AF78600B46FB707B68D3F8C832FE
:1017CC00FA781146184601F00FFE0346FB73FB7BBB
:1017DC00002B01D1002300E0032318461037BD462F
:1017EC0080BD80B584B000AF78600B46FB707B6821
:1017FC00D3F8C832FA781146184601F0B4FE034605
:10180C00FB73FB7B002B01D1002300E00323184664
:10181C001037BD4680BD80B584B000AF78600B46F4
:10182C00FB707B68D3F8C832FA781146184601F081
:10183C00FDFE0346FB73FB7B002B01D1002300E074
:10184C00032318461037BD4680BD80B485B000AF69
:10185C0078600B46FB707B68D3F8C832FB6097F955
:10186C000330002B0BDAFB7803F07F02F968134688
:10187C00DB0013449B000B4416331B780BE0FB7806
:10188C0003F07F02F9681346DB0013449B000B4402
:10189C0003F256231B7818461437BD465DF8047BBB
:1018AC00704780B584B000AF78600B46FB707B68E6
:1018BC00D3F8C832FA781146184601F007FD0346F2
:1018CC00FB73FB7B002B01D1002300E003231846A4
:1018DC001037BD4680BD80B586B000AFF8607A6029
:1018EC003B600B46FB72FB68D3F8C802F97A3B6885
:1018FC007A6801F0FEFD0346FB75FB7D002B14BFDF
:10190C0001230023DBB218461837BD4680BD80B5D5
:10191C0086B000AFF8607A603B600B46FB72FB68E8
:10192C00D3F8C802F97A3B687A6801F0A7FD034640
:10193C00FB75FB7D002B01D1002300E0032318462F
:10194C001837BD4680BD80B582B000AF78607B682B
:10195C00D3F8E0247B6803F29C431946104604F04C
:10196C00B6F900BF0837BD4680BD80B582B000AF68
:10197C0078600B46FB707B68D3F8E004FA787968E2
:10198C001346DB0013449B000B4403F518731A68D1
:10199C00FB78194604F0F0F900BF0837BD4680BD4E
:1019AC0080B582B000AF78600B46FB707B68D3F8D3
:1019BC00E004FA7879681346DB0013449B000B446F
:1019CC0020331A68FB78194604F092FA00BF0837E6
:1019DC00BD4680BD80B582B000AF78607B68D3F81F
:1019EC00E034184604F0D6FB00BF0837BD4680BD76
:1019FC0080B584B000AF78600123FB737B68DB7922
:101A0C00002B01D10023FB737B68D3F8E034FA7B05
:101A1C001146184604F07AFB7B68D3F8E03418467C
:101A2C0004F021FB00BF1037BD4680BD80B582B0ED
:101A3C0000AF78607B68D3F8E034184604F076FB8E
:101A4C0000BF0837BD4680BD80B582B000AF78605E
:101A5C007B68D3F8E034184604F084FB00BF0837E9
:101A6C00BD4680BD80B582B000AF78600B46FB7080
:101A7C007B68D3F8E034FA781146184604F0DCFBA6
:101A8C0000BF0837BD4680BD80B582B000AF78601E
:101A9C000B46FB707B68D3F8E034FA781146184695
:101AAC0004F098FB00BF0837BD4680BD80B582B0FE
:101ABC0000AF78607B68D3F8E034184604F0EEFB96
:101ACC0000BF0837BD4680BD80B582B000AF7860DE
:101ADC00002000F0EDF97B68D3F8E034184604F0F0
:101AEC00E8FB00BF0837BD4680BD80B487B000AFAF
:101AFC00F860B9601346FB710023FB7521E0FB68AD
:101B0C001B0FDBB203F00F03BB75BB7D092B03D896
:101B1C00BB7D3033DBB202E0BB7D3733DBB2FA7D09
:101B2C005200B9680A441370FB7D5B000133BA683C
:101B3C00134400221A70FB681B01FB60FB7D013310
:101B4C00FB75FA7DFB799A42D9D300BF00BF1C37D5
:101B5C00BD465DF8047B704780B483B000AF03468C
:101B6C003960FB713B6812221A80034B18460C3704
:101B7C00BD465DF8047B70470000002080B483B044
:101B8C0000AF03463960FB713B6804221A80034B9B
:101B9C0018460C37BD465DF8047B704714000020D6
:101BAC0080B582B000AF03463960FB713A680449D6
:101BBC00044805F0B1F9024B18460837BD4680BD04
:101BCC00943F01203471000880B582B000AF034609
:101BDC003960FB71FB79002B05D13A68074908483D
:101BEC0005F09AF904E03A680449064805F094F9BE
:101BFC00024B18460837BD4680BD00BF943F0120FC
:101C0C00407100085C71000880B582B000AF0346DB
:101C1C003960FB710F4B1A221A700E4B03225A704B
:101C2C0000F068FA034608220B491846FFF75DFFDF
:101C3C0000F06CFA0346042208491846FFF755FFDA
:101C4C00044B1B781A463B681A80024B184608371F
:101C5C00BD4680BD943F0120963F0120A63F012048
:101C6C0080B582B000AF03463960FB713A68044915
:101C7C00044805F051F9024B18460837BD4680BDA3
:101C8C00943F01207871000880B582B000AF034604
:101C9C003960FB713A680449044805F03DF9024B80
:101CAC0018460837BD4680BD943F01208C71000852
:101CBC0080B584B000AF78600B46FB707B681B7CF2
:101CCC00002B02D14FF4007300E04023FB81FB8911
:101CDC00022281217868FFF749FD7B68012283F895
:101CEC003720012000F0E4F8002318461037BD46D9
:101CFC0080BD80B582B000AF78600B46FB7081214F
:101D0C007868FFF754FD7B68002283F837200020A9
:101D1C0000F0CEF8002318460837BD4680BD000001
:101D2C0080B582B000AF786039603B681B7803F0F7
:101D3C006003402B05D0402B25D8002B07D0202B3F
:101D4C0021D13968786805F0D6F8032320E03B6888
:101D5C005B780A2B02D00B2B06D00BE001220E492C
:101D6C00786805F043F90BE03B685B88DAB20A4B04
:101D7C001A7005E03968786805F0BDF8032307E0B0
:101D8C0000BF002304E03968786805F0B4F8032339
:101D9C0018460837BD4680BD1440012080B582B07E
:101DAC0000AF78600B46FB70FB78184600F0EAF841
:101DBC00002318460837BD4680BD000080B483B0B0
:101DCC0000AF78607B6819221A80034B18460C37D9
:101DDC00BD465DF8047B70476C00002080B483B076
:101DEC0000AF78607B6819221A80034B18460C37B9
:101DFC00BD465DF8047B70478800002080B483B03A
:101E0C0000AF78607B6819221A80034B18460C3798
:101E1C00BD465DF8047B7047A400002080B483B0FD
:101E2C0000AF78607B680A221A80034B18460C3787
:101E3C00BD465DF8047B7047C000002080B500AF44
:101E4C000F4B00221A700F4B00221A700E4BFF2200
:101E5C001A7000220D490E4803F086FE0346002B33
:101E6C000AD10C490A4803F0AFFE0346002B05D1FA
:101E7C00074803F0DFFE02E000BF00E000BF80BDBA
:101E8C00F4420120F5420120CA0000201800002075
:101E9C00184001203400002080B400AF034B1B78A5
:101EAC00DBB21846BD465DF8047B7047F442012056
:101EBC0080B483B000AF0346FB710A4AFB79137000
:101ECC00FB7983F00103DBB2002B05D0064B00221B
:101EDC001A70064BFF221A7000BF0C37BD465DF816
:101EEC00047B7047F4420120F5420120CA00002017
:101EFC0080B582B000AFFF23FB711E4B1B78DBB2A9
:101F0C0083F00103DBB2002B2DD11B4B1B78DBB212
:101F1C00002B28D1FB1D1846FEF712FD034683F05B
:101F2C000103DBB2002B20D1FA79144B1A70124B3F
:101F3C0001221A70FB791846FEF78CFD024644F616
:101F4C00606381210E48FFF7C6FC0346002B0DD0C1
:101F5C00094B00221A70094BFF221A70FB791846A4
:101F6C00FEF706FD02E000BF00E000BF0837BD46EB
:101F7C0080BD00BFF4420120F5420120CA000020C0
:101F8C001840012080B584B000AF0346FB71FB798B
:101F9C00012B10D10A4B1B78FB73094BFF221A70D3
:101FAC00084B00221A70FB7BFF2B05D0FB7B1846DD
:101FBC00FEF714FD00E000BF1037BD4680BD00BF2A
:101FCC00CA000020F542012080B500AF0E4B1B6803
:101FDC000D4A43F4007313600B4B1B680A4A43F41D
:101FEC0080631360084B1B68074A43F480731360CB
:101FFC00032000F067F90F2000F008F8FEF782FECE
:10200C000023184680BD00BF003C024080B582B062
:10201C0000AF7860124B1A68124B1B7819464FF4BC
:10202C007A73B3FBF1F3B2FBF3F3184600F07FF9CC
:10203C000346002B01D001230EE07B680F2B0AD83E
:10204C00002279684FF0FF3000F047F9064A7B68B0
:10205C001360002300E0012318460837BD4680BDFD
:10206C00D4000020D0000020CC00002080B400AFB1
:10207C00064B1B781A46064B1B681344044A136024
:10208C0000BFBD465DF8047B704700BFD000002048
:10209C00F842012080B400AF034B1B681846BD46C4
:1020AC005DF8047B704700BFF842012080B584B016
:1020BC0000AF7860FFF7EEFFB8607B68FB60FB68F1
:1020CC00B3F1FF3F05D00A4B1B781A46FB6813444B
:1020DC00FB6000BFFFF7DEFF0246BB68D31AFA684D
:1020EC009A42F7D800BF00BF1037BD4680BD00BF75
:1020FC00D000002080B400AF034B1B681846BD46CF
:10210C005DF8047B704700BF107AFF1F80B400AFEE
:10211C00034B1B681846BD465DF8047B704700BF37
:10212C00147AFF1F80B485B000AF78607B6803F031
:10213C000703FB600C4BDB68BB60BA684FF6FF0310
:10214C001340BB60FB681A02BB68134343F0BF63C8
:10215C0043F40033BB60044ABB68D36000BF143740
:10216C00BD465DF8047B704700ED00E080B400AF25
:10217C00044BDB681B0A03F007031846BD465DF8E9
:10218C00047B704700ED00E080B483B000AF0346E1
:10219C00FB7197F90730002B0BDBFB7903F01F0267
:1021AC00074997F907305B09012000FA02F241F860
:1021BC00232000BF0C37BD465DF8047B704700BF81
:1021CC0000E100E080B483B000AF03463960FB71DE
:1021DC0097F90730002B0ADB3B68DAB20C4997F908
:1021EC0007301201D2B20B4483F800230AE03B689B
:1021FC00DAB20849FB7903F00F03043B1201D2B2A7
:10220C000B441A7600BF0C37BD465DF8047B704753
:10221C0000E100E000ED00E080B489B000AFF860B0
:10222C00B9607A60FB6803F00703FB61FB69C3F1DB
:10223C000703042B28BF0423BB61FB690433062B63
:10224C0002D9FB69033B00E000237B614FF0FF32B6
:10225C00BB6902FA03F3DA43BB681A407B699A4004
:10226C004FF0FF317B6901FA03F3D9437B680B40D4
:10227C00134318462437BD465DF8047B70470000B5
:10228C0080B582B000AF78607B68013BB3F1807F92
:10229C0001D301230FE00A4A7B68013B53600F21F5
:1022AC004FF0FF30FFF78EFF054B00229A60044B76
:1022BC0007221A60002318460837BD4680BD00BFB0
:1022CC0010E000E080B582B000AF78607868FFF76E
:1022DC0029FF00BF0837BD4680BD80B586B000AF72
:1022EC000346B9607A60FB7300237B61FFF73EFF06
:1022FC0078617A68B9687869FFF78EFF024697F9BA
:10230C000F3011461846FFF75DFF00BF1837BD466A
:10231C0080BD80B582B000AF0346FB7197F90730E2
:10232C001846FFF731FF00BF0837BD4680BD80B5AA
:10233C0082B000AF78607868FFF7A2FF03461846BA
:10234C000837BD4680BD000080B489B000AF78600E
:10235C00396000237B6100233B610023BB610023B8
:10236C00FB6177E10122FB6902FA03F37B613B68B5
:10237C001B687A6913403B613A697B699A4240F069
:10238C0066813B685B6803F00303012B05D03B6857
:10239C005B6803F00303022B30D17B689B68BB6145
:1023AC00FB695B00032202FA03F3DB43BA691340B7
:1023BC00BB613B68DA68FB695B0002FA03F3BA693C
:1023CC001343BB617B68BA699A607B685B68BB61CD
:1023DC000122FB6902FA03F3DB43BA691340BB61C8
:1023EC003B685B681B0903F00102FB6902FA03F30B
:1023FC00BA691343BB617B68BA695A603B685B6816
:10240C0003F00303032B17D07B68DB68BB61FB690C
:10241C005B00032202FA03F3DB43BA691340BB618E
:10242C003B689A68FB695B0002FA03F3BA691343D1
:10243C00BB617B68BA69DA603B685B6803F00303D5
:10244C00022B23D1FB69DA087B68083253F822305F
:10245C00BB61FB6903F007039B000F2202FA03F335
:10246C00DB43BA691340BB613B681A69FB6903F033
:10247C0007039B0002FA03F3BA691343BB61FB69C0
:10248C00DA087B680832B96943F822107B681B684C
:10249C00BB61FB695B00032202FA03F3DB43BA69FD
:1024AC001340BB613B685B6803F00302FB695B0094
:1024BC0002FA03F3BA691343BB617B68BA691A6009
:1024CC003B685B6803F44033002B00F0C0800023B2
:1024DC00FB60664B5B6C654A43F480435364634B0F
:1024EC005B6C03F48043FB60FB68614AFB699B08EF
:1024FC00023352F82330BB61FB6903F003039B00EA
:10250C000F2202FA03F3DB43BA691340BB617B6809
:10251C00584A934237D07B68574A934231D07B68F4
:10252C00564A93422BD07B68554A934225D07B6800
:10253C00544A93421FD07B68534A934219D07B680C
:10254C00524A934213D07B68514A93420DD07B6818
:10255C00504A934207D07B684F4A934201D10923DA
:10256C0012E00A2310E008230EE007230CE00623F8
:10257C000AE0052308E0042306E0032304E0022319
:10258C0002E0012300E00023FA6902F0030292004A
:10259C009340BA691343BB613549FB699B0802330D
:1025AC00BA6941F823203D4B9B68BB613B69DB4317
:1025BC00BA691340BB613B685B6803F48013002B62
:1025CC0003D0BA693B691343BB61344ABB6993605E
:1025DC00324BDB68BB613B69DB43BA691340BB61BF
:1025EC003B685B6803F40013002B03D0BA693B69AA
:1025FC001343BB61294ABB69D360284B5B68BB6141
:10260C003B69DB43BA691340BB613B685B6803F40D
:10261C000033002B03D0BA693B691343BB611F4ADB
:10262C00BB6953601D4B1B68BB613B69DB43BA69DB
:10263C001340BB613B685B6803F48033002B03D011
:10264C00BA693B691343BB61144ABB691360FB69EC
:10265C000133FB61FB690F2B7FF684AE00BF00BF1B
:10266C002437BD465DF8047B704700BF003802403C
:10267C000038014000000240000402400008024003
:10268C00000C0240001002400014024000180240EE
:10269C00001C02400020024000240240003C01408B
:1026AC0080B485B000AF78600B467B807B681A697C
:1026BC007B881340002B02D00123FB7301E0002325
:1026CC00FB73FB7B18461437BD465DF8047B7047E3
:1026DC0080B483B000AF78600B467B8013467B7070
:1026EC007B78002B03D07A887B689A6103E07B8827
:1026FC001A047B689A6100BF0C37BD465DF8047BF9
:10270C00704780B586B002AF78607B68002B01D132
:10271C00012301E17B681B68BB607B6893F89534EF
:10272C00DBB2002B06D17B68002283F894247868F6
:10273C00FEF78AFF7B68032283F89524BB68B3F10C
:10274C00A04F02D17B6800229A717B681B681846E7
:10275C0001F0C1FF7B6818687B681A7C8DF800203B
:10276C0004330ECB01F0A0FE0346002B05D07B6892
:10277C00022283F895240123CEE07B681B6800219C
:10278C00184601F0B9FF0346002B05D07B680222E6
:10279C0083F895240123BFE00023FB734AE0FA7B06
:1027AC0079681346DB0013449B000B44153301225C
:1027BC001A70FA7B79681346DB0013449B000B44B8
:1027CC001433FA7B1A70FA7BFB7B98B27968134648
:1027DC00DB0013449B000B442E3302461A80FA7B19
:1027EC0079681346DB0013449B000B44183300221A
:1027FC001A70FA7B79681346DB0013449B000B4478
:10280C001C3300221A60FA7B79681346DB001344F0
:10281C009B000B44203300221A60FA7B7968134624
:10282C00DB0013449B000B44243300221A60FB7B17
:10283C000133FB737B681B79FA7B9A42AFD300237D
:10284C00FB7344E0FA7B79681346DB0013449B006E
:10285C000B4403F2552300221A70FA7B7968134655
:10286C00DB0013449B000B4403F51573FA7B1A70C1
:10287C00FA7B79681346DB0013449B000B4403F589
:10288C00167300221A70FA7B79681346DB00134426
:10289C009B000B4403F5177300221A60FA7B7968CE
:1028AC001346DB0013449B000B4403F51873002202
:1028BC001A60FA7B79681346DB0013449B000B44C7
:1028CC0003F5197300221A60FB7B0133FB737B68E1
:1028DC001B79FA7B9A42B5D37B6818687B681A7CA3
:1028EC008DF8002004330ECB01F052FF0346002B71
:1028FC0005D07B68022283F8952401230CE07B68C9
:10290C0000225A747B68012283F895247B681B682B
:10291C00184602F09CFF002318461037BD4680BDB8
:10292C0080B584B000AF78607B681B68FB607B6807
:10293C0093F89434012B01D1022322E07B6801220D
:10294C0083F89424FB68DB6803F04003002B09D068
:10295C007B685B7B012B05D1FB689B6B43F480325E
:10296C00FB689A637B681B68184601F0A3FE7B68C2
:10297C001B68184602F04AFF7B68002283F89424F7
:10298C00002318461037BD4680BD90B58DB000AF02
:10299C0078607B681B683B623B6AFB617B681B68E9
:1029AC00184603F008F80346002B40F08C847B6833
:1029BC001B68184602F06CFF0346002B00F0828463
:1029CC00FB6903F500639B681B0AC3F30D027B686C
:1029DC00C3F8D4247B681B68184602F059FF0346E1
:1029EC0003F00203022B07D17B681B685A697B68D2
:1029FC001B6802F002025A617B681B68184602F0E1
:102A0C0047FF034603F01003102B61D17B681B6852
:102A1C009A697B681B6822F010029A613B6A1B6AF8
:102A2C00BB61BB6903F00F021346DB0013449B0030
:102A3C0003F514737A68134404337B61BB6903F4A4
:102A4C00F013B3F5802F24D1BA6947F6F073134015
:102A5C00002B35D07B69D968BB691B099BB2C3F3CA
:102A6C000A039BB21A46386A02F07EFD7B69DA686B
:102A7C00BB691B09C3F30A031A447B69DA607B69DF
:102A8C005A69BB691B09C3F30A031A447B695A616F
:102A9C0016E0BB6903F4F013B3F5402F10D17B683B
:102AAC0003F29C4308221946386A02F05DFD7B69EB
:102ABC005A69BB691B09C3F30A031A447B695A613F
:102ACC007B681B689A697B681B6842F010029A61EC
:102ADC007B681B68184602F0DBFE034603F40023F8
:102AEC00B3F5002F40F0A78000237B627B681B6846
:102AFC00184602F0E0FEB86299E0BB6A03F00103ED
:102B0C00002B00F08E807B681B687A6AD2B211466B
:102B1C00184602F004FF38613B6903F00103002BF7
:102B2C000CD07B6A5A01FB69134403F530631A46D7
:102B3C0001239360796A786800F08CFE3B6903F09E
:102B4C000803002B0CD07B6A5A01FB69134403F574
:102B5C0030631A4608239360796A786800F062FF44
:102B6C003B6903F01003002B08D07B6A5A01FB6908
:102B7C00134403F530631A46102393603B6903F04A
:102B8C000203002B30D03B6A5B6903F08003802B7F
:102B9C0009D1FB6903F500635B68FA6902F5006211
:102BAC0043F4806353607A6A1346DB0013449B0042
:102BBC0003F514737A68134404337B617B69DB7807
:102BCC00012B08D17B690022DA707B6ADBB21946D3
:102BDC007868FEF747FF7B6A5A01FB69134403F5DB
:102BEC0030631A46022393603B6903F02003002BE9
:102BFC0008D07B6A5A01FB69134403F530631A460B
:102C0C00202393603B6903F40053002B09D07B6AAB
:102C1C005A01FB69134403F530631A464FF4005311
:102C2C0093607B6A01337B62BB6A5B08BB62BB6AE5
:102C3C00002B7FF462AF7B681B68184602F028FEFD
:102C4C00034603F48023B3F5802F40F0DB807B68D0
:102C5C001B68184602F049FEB86200237B62CDE087
:102C6C00BB6A03F00103002B00F0C2807B681B6879
:102C7C007A6AD2B21146184602F06FFE38613B698F
:102C8C0003F00103002B57D07B6A03F00F030122E2
:102C9C0002FA03F3FB60FB6903F500635A6BFB68F4
:102CAC00DB43F96901F5006113404B637B6A5A0100
:102CBC00FB69134403F510631A46012393607B6888
:102CCC009B79012B32D179687A6A1346DB00134465
:102CDC009B000B442033196878687A6A1346DB0032
:102CEC0013449B0003441C331B68194478687A6AAC
:102CFC001346DB0013449B000344203319607B6AAA
:102D0C00002B13D179687A6A1346DB0013449B00BD
:102D1C000B4424331B68002B08D17B6818687B6834
:102D2C0003F29C431A46012102F076FE7B6ADBB269
:102D3C0019467868FEF734FE3B6903F00803002B54
:102D4C0008D07B6A5A01FB69134403F510631A46D9
:102D5C00082393603B6903F01003002B08D07B6AB7
:102D6C005A01FB69134403F510631A461023936050
:102D7C003B6903F04003002B08D07B6A5A01FB69C6
:102D8C00134403F510631A46402393603B6903F028
:102D9C000203002B23D0796A386A01F05DFE7A6A4F
:102DAC001346DB0013449B0010337A68134404333E
:102DBC007B617B69DB78012B08D17B690022DA709F
:102DCC007B6ADBB219467868FEF75EFE7B6A5A01B5
:102DDC00FB69134403F510631A46022393603B69A5
:102DEC0003F08003002B03D0796A786800F0A5FC0F
:102DFC007B6A01337B62BB6A5B08BB62BB6A002BDC
:102E0C007FF42EAF7B681B68184602F041FD034629
:102E1C0003F00043B3F1004F22D1FB6903F50063CB
:102E2C005B68FA6902F5006223F0010353607B686A
:102E3C0093F8CC34012B08D17B68002283F8CC2486
:102E4C000021786800F08CFE02E07868FEF7FCFD4B
:102E5C007B681B685A697B681B6802F000425A61E8
:102E6C007B681B68184602F013FD034603F40063ED
:102E7C00B3F5006F12D1FB6903F500639B6803F097
:102E8C000103012B02D17868FEF7D0FD7B681B682B
:102E9C005A697B681B6802F400625A617B681B6884
:102EAC00184602F0F5FC034603F48053B3F5805F3B
:102EBC0040F0B780FB6903F500635B68FA6902F5C3
:102ECC00006223F0010353607B681B6810211846D5
:102EDC0001F0C2FD0023FB6246E0FB6A5A01FB696C
:102EEC00134403F510631A464FF67F339360FB6A65
:102EFC005A01FB69134403F510631B68FA6A51010C
:102F0C00FA690A4402F5106223F400131360FB6A99
:102F1C005A01FB69134403F530631A464FF67F33AD
:102F2C009360FB6A5A01FB69134403F530631B6819
:102F3C00FA6A5101FA690A4402F5306223F400136B
:102F4C001360FB6A5A01FB69134403F530631B6879
:102F5C00FA6A5101FA690A4402F5306243F00063DF
:102F6C001360FB6A0133FB627B681B791A46FB6AB0
:102F7C009342B2D3FB6903F50063DB69FA6902F58E
:102F8C00006243F00113D3617B68DB7B002B16D00E
:102F9C00FB6903F50063D3F88430FA6902F500622B
:102FAC0043F00B03C2F88430FB6903F500635B6CE0
:102FBC00FA6902F5006243F00B03536415E0FB69F8
:102FCC0003F500635B69FA6902F5006243F4005390
:102FDC0043F02B035361FB6903F500631B69FA692A
:102FEC0002F5006243F00B031361FB6903F5006308
:102FFC001B68FA6902F5006223F4FE6313607B68B8
:10300C0018687B6899797B6803F29C431A4602F036
:10301C0003FD7B681B685A697B681B6802F480524D
:10302C005A617B681B68184602F032FC034603F4B5
:10303C000053B3F5005F23D17B681B68184602F080
:10304C00C8FC7B681B68184601F07FFD03461A46D6
:10305C007B68DA717B681C6801F01AFA01467B68A0
:10306C00DB791A46204601F083FA7868FEF7C0FC3B
:10307C007B681B685A697B681B6802F400525A61B2
:10308C007B681B68184602F003FC034603F0080338
:10309C00082B0AD17868FEF79DFC7B681B685A697F
:1030AC007B681B6802F008025A617B681B68184633
:1030BC0002F0EEFB034603F08003802B23D13B6A26
:1030CC009B6923F080023B6A9A6101237B6214E0C6
:1030DC0079687A6A1346DB0013449B000B4403F2B5
:1030EC0057231B78012B05D17B6ADBB21946786814
:1030FC0000F0F2FA7B6A01337B627B681B791A461B
:10310C007B6A9342E4D37B681B68184602F0C0FBD1
:10311C00034603F48013B3F5801F3CD101237B627B
:10312C002BE07B6A5A01FB69134403F510631B689F
:10313C00BB6179687A6A1346DB0013449B000B442D
:10314C0018331B78012B15D1BB69002B12DA796867
:10315C007A6A1346DB0013449B000B44173301229D
:10316C001A707B6ADBB263F07F03DBB219467868B6
:10317C0000F0B2FA7B6A01337B627B681B791A46DA
:10318C007B6A9342CDD37B681B685A697B681B684A
:10319C0002F480125A617B681B68184602F078FBB7
:1031AC00034603F40013B3F5001F56D101237B62D1
:1031BC0045E07B6A5A01FB69134403F530631B68D5
:1031CC00BB6179687A6A1346DB0013449B000B449D
:1031DC0003F516731B78012B2ED1BB69002B2BDA50
:1031EC00BB691A0C7B68D3F8D434534003F0010349
:1031FC00002B21D179687A6A1346DB0013449B00BB
:10320C000B4403F2572301221A703B6A9B6943F06B
:10321C0080023B6A9A613B6A5B6903F08003002B76
:10322C000AD1FB6903F500635B68FA6902F5006279
:10323C0043F40073536008E07B6A01337B627B6864
:10324C001B791A467B6A9342B3D37B681B685A6915
:10325C007B681B6802F400125A617B681B68184675
:10326C0002F016FB034603F08043B3F1804F0AD102
:10327C007868FEF71BFC7B681B685A697B681B68C7
:10328C0002F080425A617B681B68184602F000FB12
:10329C00034603F00403042B15D17B681B685B68A1
:1032AC00BB61BB6903F00403002B02D07868FEF706
:1032BC000BFC7B681B6859687B681B68BA690A43FE
:1032CC005A6000E000BF3437BD4690BD80B582B077
:1032DC0000AF78600B46FB707B6893F89434012B3D
:1032EC0001D1022312E07B68012283F894247B68CD
:1032FC00FA785A747B681B68FA781146184602F003
:10330C005FFA7B68002283F8942400231846083760
:10331C00BD4680BD80B584B000AF786008461146CC
:10332C001A460346FB700B463B801346BB700023CA
:10333C00FB7297F90330002B0FDAFB7803F00F02C6
:10334C001346DB0013449B0010337A681344043398
:10335C00FB60FB6801225A700FE0FB7803F00F0250
:10336C001346DB0013449B0003F514737A68134473
:10337C000433FB60FB6800225A70FB7803F00F03E8
:10338C00DAB2FB681A703B88C3F30A02FB689A60D6
:10339C00FB68BA781A71FB685B78002B04D0FB6869
:1033AC001B781A46FB685A83BB78022B02D1FB6848
:1033BC0000225A717B6893F89434012B01D10223BB
:1033CC000EE07B68012283F894247B681B68F96803
:1033DC00184601F0DFFB7B68002283F89424FB7A0B
:1033EC0018461037BD4680BD80B584B000AF7860FC
:1033FC000B46FB7097F90330002B0FDAFB7803F0C8
:10340C000F021346DB0013449B0010337A681344FD
:10341C000433FB60FB6801225A700FE0FB7803F069
:10342C000F021346DB0013449B0003F514737A68F8
:10343C0013440433FB60FB6800225A70FB7803F0E2
:10344C000F03DAB2FB681A707B6893F89434012B83
:10345C0001D102230EE07B68012283F894247B685F
:10346C001B68F968184601F01DFC7B68002283F884
:10347C009424002318461037BD4680BD80B586B015
:10348C0000AFF8607A603B600B46FB72FB7A03F08E
:10349C000F021346DB0013449B0003F51473FA6808
:1034AC00134404337B617B697A68DA607B693A6820
:1034BC001A617B6900225A617B6900225A70FB7A7F
:1034CC0003F00F03DAB27B691A70FB689B79012B4E
:1034DC0002D17A687B69DA61FB681868FB689B79B2
:1034EC001A46796901F0BAFC002318461837BD4614
:1034FC0080BD80B586B000AFF8607A603B600B464B
:10350C00FB72FB7A03F00F021346DB0013449B00A3
:10351C001033FA68134404337B617B697A68DA6090
:10352C007B693A681A617B6900225A617B690122C6
:10353C005A70FB7A03F00F03DAB27B691A70FB68DE
:10354C009B79012B02D17A687B69DA61FB68186878
:10355C00FB689B791A46796901F080FC00231846B8
:10356C001837BD4680BD80B584B000AF78600B467F
:10357C00FB70FB7803F00F037A681279934201D940
:10358C0001234FE097F90330002B0FDAFB7803F09F
:10359C000F021346DB0013449B0010337A6813446C
:1035AC000433FB60FB6801225A700DE0FA78134675
:1035BC00DB0013449B0003F514737A681344043343
:1035CC00FB60FB6800225A70FB6801229A70FB7842
:1035DC0003F00F03DAB2FB681A707B6893F894342B
:1035EC00012B01D102231DE07B68012283F8942476
:1035FC007B681B68F968184602F00EF8FB7803F03C
:10360C000F03002B09D17B6818687B6899797B685C
:10361C0003F29C431A4602F0FFF97B68002283F800
:10362C009424002318461037BD4680BD80B584B065
:10363C0000AF78600B46FB70FB7803F00F037A68E1
:10364C001279934201D9012342E097F90330002B00
:10365C000FDAFB7803F00F021346DB0013449B00D8
:10366C0010337A6813440433FB60FB6801225A70F0
:10367C000FE0FB7803F00F021346DB0013449B00B2
:10368C0003F514737A6813440433FB60FB6800225F
:10369C005A70FB6800229A70FB7803F00F03DAB2C1
:1036AC00FB681A707B6893F89434012B01D10223C8
:1036BC000EE07B68012283F894247B681B68F96810
:1036CC00184602F017F87B68002283F89424002334
:1036DC0018461037BD4680BD80B584B000AF786009
:1036EC000B46FB7097F90330002B0CDAFB7803F0D8
:1036FC000F021346DB0013449B0010337A6813440B
:10370C000433FB600CE0FB7803F00F021346DB0084
:10371C0013449B0003F514737A6813440433FB6061
:10372C007B681B68F968184601F036FE0346FB728D
:10373C00FB7A18461037BD4680BD80B58AB002AF03
:10374C00786039607B681B687B617B693B613A6898
:10375C001346DB0013449B0010337A681344043384
:10376C00FB60FB685A69FB681B699A4201D901230B
:10377C006BE0FB681A69FB685B69D31AFB61FB6839
:10378C009B68FA699A4202D9FB689B68FB61FB69EA
:10379C0003339B08BB612AE0FB681A69FB685B6911
:1037AC00D31AFB61FB689B68FA699A4202D9FB68E1
:1037BC009B68FB61FB6903339B08BB61FB68D968A1
:1037CC003B68DAB2FB6998B27B689B79009303463D
:1037DC00786901F08BFEFB68DA68FB691A44FB68B8
:1037EC00DA60FB685A69FB691A44FB685A613B68EA
:1037FC005A013B69134403F510639B699BB2BA6988
:10380C009A4209D8FB685A69FB681B699A4203D231
:10381C00FB681B69002BBFD1FB681A69FB685B69ED
:10382C009A4211D83B6803F00F03012202FA03F30A
:10383C00BB603B6903F500635A6BBB68DB433969BA
:10384C0001F5006113404B63002318462037BD4639
:10385C0080BD000080B588B000AF786039607B68AF
:10386C001B68FB61FB69BB61FB693C3304331B6860
:10387C007B613B685A01BB69134403F530639B6859
:10388C003B617B689B79012B7BD13B6903F008037F
:10389C00002B15D07B69614A934240F2B9803B6999
:1038AC0003F40043002B00F0B3803B685A01BB6962
:1038BC00134403F530631A464FF400439360A7E0BA
:1038CC003B6903F02003002B09D03B685A01BB690C
:1038DC00134403F530631A462023936098E03B6948
:1038EC0003F02803002B40F093807B694B4A9342F2
:1038FC000FD93B6903F40043002B0AD03B685A01F3
:10390C00BB69134403F530631A464FF400439360CC
:10391C007EE03A681346DB0013449B0003F51473F6
:10392C007A6813440433FB60FB681A6A3B685901DC
:10393C00BB690B4403F530631B69C3F31203D21A42
:10394C00FB685A613B68002B14D1FB681B69002B88
:10395C0009D17B6818687B6803F29C431A460121E5
:10396C0002F05AF806E0FB68DA68FB685B691A44F7
:10397C00FB68DA603B68DBB219467868FDF7F5FF47
:10398C0046E07B69264A934224D13B6903F4004309
:10399C00002B0AD03B685A01BB69134403F5306312
:1039AC001A464FF40043936032E03B6903F0200366
:1039BC00002B08D03B685A01BB69134403F53063F4
:1039CC001A46202393603B68DBB219467868FDF7F2
:1039DC00CCFF1DE03B68002B14D179683A68134684
:1039EC00DB0013449B000B4403F519731B68002B7D
:1039FC0008D17B6818687B6803F29C431A46002147
:103A0C0002F00AF83B68DBB219467868FDF7ADFFA7
:103A1C00002318462037BD4680BD00BF0A30544FE6
:103A2C000A31544F80B586B000AF786039607B683E
:103A3C001B687B617B693B617B693C3304331B688E
:103A4C00FB603B685A013B69134403F530639B6888
:103A5C00BB60FB68154A93420ED9BB6803F4004364
:103A6C00002B09D03B685A013B69134403F53063C2
:103A7C001A464FF4004393607868FDF764FFFB68C7
:103A8C000A4A93420CD97B689B79012B08D17B683D
:103A9C0018687B6803F29C431A46012101F0BCFFB5
:103AAC00002318461837BD4680BD00BF0A30544F5E
:103ABC0080B485B000AF78600B46FB7013463B803A
:103ACC007B681B685B6ABB60FB78002B07D13B886B
:103ADC0019047B681B68BA680A439A6228E07B6801
:103AEC001B689B6A1B0CBA681344BB600023FB73F6
:103AFC000DE07B681A68FB7B40339B0013445B68CA
:103B0C001B0CBA681344BB60FB7B0133FB73FA7B61
:103B1C00FB78013B9A42ECD33B8818047B6819680C
:103B2C00FB78013BBA68024340339B000B445A605C
:103B3C00002318461437BD465DF8047B704780B4EB
:103B4C0083B000AF78600B467B807B681B687A88FB
:103B5C005A62002318460C37BD465DF8047B70474B
:103B6C0080B483B000AF78600B46FB7000BF0C379D
:103B7C00BD465DF8047B704780B586B000AF7860B9
:103B8C007B68002B01D1012367E27B681B6803F083
:103B9C000103002B75D0884B9B6803F00C03042B9E
:103BAC000CD0854B9B6803F00C03082B12D1824B75
:103BBC005B6803F48003B3F5800F0BD17E4B1B685D
:103BCC0003F40033002B5BD07B685B68002B57D170
:103BDC00012342E27B685B68B3F5803F06D1764BEC
:103BEC001B68754A43F4803313601DE07B685B6887
:103BFC00B3F5A02F0CD1704B1B686F4A43F4802394
:103C0C0013606D4B1B686C4A43F4803313600BE0FC
:103C1C00694B1B68684A23F480331360664B1B683E
:103C2C00654A23F4802313607B685B68002B13D0F8
:103C3C00FEF730FA386108E0FEF72CFA02463B69D1
:103C4C00D31A642B01D9032307E25B4B1B6803F4E3
:103C5C000033002BF0D014E0FEF71CFA386108E0BA
:103C6C00FEF718FA02463B69D31A642B01D90323D9
:103C7C00F3E1514B1B6803F40033002BF0D100E04F
:103C8C0000BF7B681B6803F00203002B63D04A4B18
:103C9C009B6803F00C03002B0BD0474B9B6803F085
:103CAC000C03082B1CD1444B5B6803F48003002BE2
:103CBC0016D1414B1B6803F00203002B05D07B6827
:103CCC00DB68012B01D00123C7E13B4B1B6823F0C0
:103CDC00F8027B681B69DB00374913430B603AE041
:103CEC007B68DB68002B20D0344B01221A60FEF776
:103CFC00D1F9386108E0FEF7CDF902463B69D31AD9
:103D0C00022B01D90323A8E12B4B1B6803F0020300
:103D1C00002BF0D0284B1B6823F0F8027B681B6942
:103D2C00DB00254913430B6015E0244B00221A607D
:103D3C00FEF7B0F9386108E0FEF7ACF902463B69D2
:103D4C00D31A022B01D9032387E11B4B1B6803F009
:103D5C000203002BF0D17B681B6803F00803002BD7
:103D6C0036D07B685B69002B16D0154B01221A608C
:103D7C00FEF790F9386108E0FEF78CF902463B69D2
:103D8C00D31A022B01D9032367E10B4B5B6F03F0B2
:103D9C000203002BF0D01BE0094B00221A60FEF747
:103DAC0079F938610EE0FEF775F902463B69D31AD2
:103DBC00022B07D9032350E1003802400000474290
:103DCC00800E4742884B5B6F03F00203002BEAD155
:103DDC007B681B6803F00403002B00F09780002322
:103DEC00FB75814B1B6C03F08053002B0FD1002310
:103DFC00BB607D4B1B6C7C4A43F0805313647A4B45
:103E0C001B6C03F08053BB60BB680123FB75774BC5
:103E1C001B6803F48073002B18D1744B1B68734A16
:103E2C0043F480731360FEF735F9386108E0FEF750
:103E3C0031F902463B69D31A022B01D903230CE159
:103E4C006A4B1B6803F48073002BF0D07B689B6873
:103E5C00012B06D1644B1B6F634A43F001031367BC
:103E6C001CE07B689B68052B0CD15F4B1B6F5E4A7B
:103E7C0043F0040313675C4B1B6F5B4A43F0010375
:103E8C0013670BE0584B1B6F574A23F00103136762
:103E9C00554B1B6F544A23F0040313677B689B68D4
:103EAC00002B15D0FEF7F6F838610AE0FEF7F2F8B1
:103EBC0002463B69D31A41F28832934201D903235B
:103ECC00CBE0494B1B6F03F00203002BEED014E048
:103EDC00FEF7E0F838610AE0FEF7DCF802463B69D1
:103EEC00D31A41F28832934201D90323B5E03E4BF9
:103EFC001B6F03F00203002BEED1FB7D012B05D1D0
:103F0C00394B1B6C384A23F0805313647B689B69D4
:103F1C00002B00F0A180344B9B6803F00C03082BA2
:103F2C005CD07B689B69022B41D1314B00221A601B
:103F3C00FEF7B0F8386108E0FEF7ACF802463B69D2
:103F4C00D31A022B01D9032387E0274B1B6803F0FC
:103F5C000073002BF0D17B68DA697B681B6A1A430B
:103F6C007B685B6A9B011A437B689B6A5B08013B1D
:103F7C001B041A437B68DB6A1B061B4913434B600B
:103F8C001B4B01221A60FEF785F8386108E0FEF73A
:103F9C0081F802463B69D31A022B01D903235CE05A
:103FAC00114B1B6803F00073002BF0D054E0104B46
:103FBC0000221A60FEF76EF8386108E0FEF76AF826
:103FCC0002463B69D31A022B01D9032345E0064B69
:103FDC001B6803F00073002BF0D13DE07B689B69FC
:103FEC00012B07D1012338E000380240007000405B
:103FFC00600047421B4B5B68FB607B689B69012B35
:10400C0028D0FB6803F480027B68DB699A4221D1DB
:10401C00FB6803F03F027B681B6A9A421AD1FA686C
:10402C0047F6C07313407A68526A9201934211D1D9
:10403C00FB6803F440327B689B6A5B08013B1B0402
:10404C009A4207D1FB6803F070627B68DB6A1B063F
:10405C009A4201D0012300E0002318461837BD46D0
:10406C0080BD00BF0038024080B584B000AF7860DE
:10407C0039607B68002B01D10123CCE0684B1B68B5
:10408C0003F00F033A689A420CD9654B3A68D2B2E6
:10409C001A70634B1B6803F00F033A689A4201D005
:1040AC000123B8E07B681B6803F00203002B20D0CF
:1040BC007B681B6803F00403002B05D0594B9B68ED
:1040CC00584A43F4E05393607B681B6803F0080381
:1040DC00002B05D0534B9B68524A43F460439360CA
:1040EC00504B9B6823F0F0027B689B684D4913434F
:1040FC008B607B681B6803F00103002B44D07B684A
:10410C005B68012B07D1474B1B6803F40033002B72
:10411C0019D101237FE07B685B68022B03D07B689D
:10412C005B68032B07D13F4B1B6803F00073002B1C
:10413C0009D101236FE03B4B1B6803F00203002BFA
:10414C0001D1012367E0374B9B6823F003027B68A6
:10415C005B68344913438B60FDF79CFFF8600AE001
:10416C00FDF798FF0246FB68D31A41F2883293425E
:10417C0001D903234FE02B4B9B6803F00C027B68A7
:10418C005B689B009A42EBD1254B1B6803F00F0335
:10419C003A689A420CD2224B3A68D2B21A70204B2F
:1041AC001B6803F00F033A689A4201D0012332E0F6
:1041BC007B681B6803F00403002B08D0194B9B6829
:1041CC0023F4E0527B68DB68164913438B607B68F1
:1041DC001B6803F00803002B09D0124B9B6823F4D7
:1041EC0060427B681B69DB000E4913438B6000F057
:1041FC0089F802460B4B9B681B0903F00F030A4915
:10420C00CB5C22FA03F3094A1360094B1B6818466E
:10421C00FDF7FCFE002318461037BD4680BD00BFDD
:10422C00003C0240003802409C710008D400002081
:10423C00CC00002080B58CB000AFF860B9607A601B
:10424C00FB68002B29D10023BB612B4B1B6B2A4A2B
:10425C0043F001031363284B1B6B03F00103BB6199
:10426C00BB694FF48073FB6102233B620323BB6287
:10427C0000237B620023FB6207F11C0319461F48D5
:10428C00FEF762F81C4B9B6823F0EC62B9687B6804
:10429C000B43194913438B6029E000237B61164BB8
:1042AC001B6B154A43F004031363134B1B6B03F096
:1042BC0004037B617B694FF40073FB6102233B6257
:1042CC000323BB6200237B620023FB6207F11C0308
:1042DC0019460B48FEF738F8074B9B6823F07842D9
:1042EC007B68D900BB680B43034913438B6000BF49
:1042FC003037BD4680BD00BF003802400000024090
:10430C00000802402DE9B04F90B000AF00237B6352
:10431C000023FB6300233B630023BB63594B9B6867
:10432C0003F00C03082B0DD0082B00F2A180002BFE
:10433C0002D0042B03D09BE0534BBB639BE0534B4D
:10434C00BB6398E04F4B5B6803F03F037B634D4BC3
:10435C005B6803F48003002B28D04A4B5B689B09F5
:10436C0000223B627A623B6AC3F308000021474B90
:10437C0003FB01F2002300FB03F31344434AA0FBAD
:10438C000212FA620A46BA62FA6A1344FB627B6B47
:10439C000022BB61FA61D7E90623D7E90A01FBF7D2
:1043AC001FFF02460B461346FB6353E0354B5B681D
:1043BC009B0900223B617A613B69C3F3080A4FF009
:1043CC00000B52465B464FF000004FF000015901C4
:1043DC0041EAD261500102460B46B2EB0A0863EB8C
:1043EC000B094FF000024FF000034FEA891343EA28
:1043FC0098634FEA8812B2EB080463EB09054FF09F
:10440C0000024FF00003EB0043EA5473E200144641
:10441C001D4614EB0A033B6045EB0B037B604FF02E
:10442C0000024FF00003D7E9004529468B022146D4
:10443C0043EA915321468A02104619467B6B0022AF
:10444C00BB60FA60D7E90223FBF7CAFE02460B46B3
:10445C001346FB630B4B5B681B0C03F0030301332C
:10446C005B003B63FA6B3B6BB2FBF3F3BB6302E0A9
:10447C00054BBB6300BFBB6B18464037BD46BDE860
:10448C00B08F00BF003802400024F400002D310131
:10449C0080B400AF034B1B681846BD465DF8047B27
:1044AC00704700BFD400002084B080B584B000AF4A
:1044BC00786007F11C0080E80E0097F82130012B82
:1044CC0023D17B689B6B23F480327B689A637B6877
:1044DC00DB6823F4840323F040037A68D3607B68A1
:1044EC00DB6823F440127B68DA6097F82830012BE4
:1044FC0005D17B68DB6843F480127B68DA607868EE
:10450C0001F0E8FA0346FB731BE07B68DB6843F0C1
:10451C0040027B68DA60786801F0DCFA0346FB73D2
:10452C0097F82530002B06D17B689B6B43F48032C7
:10453C007B689A6305E07B689B6B23F480327B6815
:10454C009A63BB7F012B0BD17B689B6843F00602FF
:10455C007B689A607B689B6843F020027B689A605A
:10456C00FB7B18461037BD46BDE8804004B0704751
:10457C0080B487B000AFF860B9601346FB71FB796B
:10458C00022B65D1BB68414A934206D9BB68404AAD
:10459C00934202D20F237B6162E0BB683C4A934298
:1045AC0006D3BB683B4A934202D20E237B6157E091
:1045BC00BB68384A934206D3BB68374A934202D24F
:1045CC000D237B614CE0BB68334A934206D3BB6836
:1045DC00324A934202D80C237B6141E0BB682F4ADC
:1045EC00934206D9BB682E4A934202D80B237B61B7
:1045FC0036E0BB682A4A934206D9BB68294A9342E3
:10460C0002D80A237B612BE0BB68264A934206D969
:10461C00BB68254A934202D209237B6120E0BB6828
:10462C00214A934206D3BB68204A934202D80823FE
:10463C007B6115E0BB681D4A934206D9BB681C4AD6
:10464C00934202D207237B610AE006237B6107E0D9
:10465C00FB79002B02D109237B6101E009237B61EB
:10466C00FB68DB6823F47052FB68DA60FB68DA687D
:10467C007B699B0203F470531A43FB68DA600023D6
:10468C0018461C37BD465DF8047B7047BFACD8009C
:10469C00C0E1E4000024F400807306019F491A0174
:1046AC00FF2C31013FA44C0100366E011FABA6015B
:1046BC000048E80180B483B000AF78607B689B68E9
:1046CC0043F001027B689A60002318460C37BD4604
:1046DC005DF8047B704780B483B000AF78607B6872
:1046EC009B6823F001027B689A60002318460C3704
:1046FC00BD465DF8047B704780B584B000AF786030
:10470C000B46FB700023FB607B68DB6823F0C04228
:10471C007B68DA60FB78012B15D17B68DB6843F092
:10472C0000527B68DA600A20FDF7C0FCFB680A3394
:10473C00FB60786801F03FF90346012B1ED0FB6843
:10474C00C72BF0D91AE0FB78002B15D17B68DB68FE
:10475C0043F080427B68DA600A20FDF7A7FCFB6817
:10476C000A33FB60786801F026F90346002B05D06C
:10477C00FB68C72BF0D901E0012305E0FB68C82BCF
:10478C0001D1012300E0002318461037BD4680BD3F
:10479C0084B080B586B000AF786007F1240080E863
:1047AC000E000023FB757B68FB6000233B6109E076
:1047BC007A683B6940339B00134400225A603B6982
:1047CC0001333B613B690E2BF2D997F82E30002B4D
:1047DC001CD1FB6803F500635B68FA6802F50062A4
:1047EC0043F0020353607B689B6B43F400127B68BD
:1047FC009A637B689B6B23F400227B689A637B68CB
:10480C009B6B23F480227B689A630BE07B689B6B29
:10481C0023F400127B689A637B689B6B43F4002241
:10482C007B689A63FB6803F560631A460023136088
:10483C0097F82930012B0DD197F82730002B04D194
:10484C000021786800F068F908E00121786800F030
:10485C0063F903E00321786800F05EF910217868B1
:10486C0000F0FAF80346002B01D00123FB757868A1
:10487C0000F024F90346002B01D00123FB75FB68E3
:10488C0003F500631A4600231361FB6803F500630C
:10489C001A4600235361FB6803F500631A46002394
:1048AC00D36100233B6143E03B695A01FB6813442D
:1048BC0003F510631B6803F00043B3F1004F18D1EC
:1048CC003B69002B0AD13B695A01FB68134403F581
:1048DC0010631A464FF00063136013E03B695A01F2
:1048EC00FB68134403F510631A464FF090431360B2
:1048FC0008E03B695A01FB68134403F510631A4640
:10490C00002313603B695A01FB68134403F51063E1
:10491C001A46002313613B695A01FB68134403F5E3
:10492C0010631A464FF67F3393603B6901333B614A
:10493C0097F824301A463B699342B5D300233B6168
:10494C0043E03B695A01FB68134403F530631B6871
:10495C0003F00043B3F1004F18D13B69002B0AD18F
:10496C003B695A01FB68134403F530631A464FF058
:10497C000063136013E03B695A01FB68134403F5B1
:10498C0030631A464FF09043136008E03B695A01BC
:10499C00FB68134403F530631A46002313603B692C
:1049AC005A01FB68134403F530631A460023136164
:1049BC003B695A01FB68134403F530631A464FF602
:1049CC007F3393603B6901333B6197F824301A467F
:1049DC003B699342B5D3FB6803F500631B69FA6826
:1049EC0002F5006223F4807313617B6800229A61E4
:1049FC007B686FF080425A6197F82630002B05D106
:104A0C007B689B6943F010027B689A617B689A69AA
:104A1C00104B13437A68936197F82A30002B05D01A
:104A2C007B689B6943F008027B689A6197F82E308B
:104A3C00012B07D17B689B6943F0804343F004034F
:104A4C007A689361FB7D18461837BD46BDE88040F7
:104A5C0004B0704700383C8080B485B000AF7860FB
:104A6C0039600023FB60FB680133FB60FB68B3F12A
:104A7C00706F01D903231BE07B681B69002BF2DAF2
:104A8C000023FB603B689B0143F020027B681A61AA
:104A9C00FB680133FB60FB68B3F1706F01D9032332
:104AAC0006E07B681B6903F02003202BF0D0002369
:104ABC0018461437BD465DF8047B704780B485B04A
:104ACC0000AF78600023FB60FB680133FB60FB6880
:104ADC00B3F1706F01D9032318E07B681B69002BBD
:104AEC00F2DA0023FB607B6810221A61FB68013349
:104AFC00FB60FB68B3F1706F01D9032306E07B68A0
:104B0C001B6903F01003102BF0D000231846143748
:104B1C00BD465DF8047B704780B485B000AF78600B
:104B2C000B46FB707B68FB60FB6803F500631A683F
:104B3C00FB78F96801F5006113430B6000231846FC
:104B4C001437BD465DF8047B704780B487B000AF66
:104B5C0078607B683B613B6903F500639B6803F0FD
:104B6C000603FB60FB68002B02D10023FB750AE0F7
:104B7C00FB68022B02D0FB68062B02D10223FB75CB
:104B8C0001E00F23FB75FB7D18461C37BD465DF815
:104B9C00047B704780B485B000AF786039607B6867
:104BAC00FB603B681B78BB603B685B78012B3AD1A0
:104BBC00FB6803F50063DA693B681B7803F00F03AD
:104BCC00012101FA03F39BB2F96801F5006113436B
:104BDC00CB61BB685A01FB68134403F510631B6877
:104BEC0003F40043002B55D1BB685A01FB681344F6
:104BFC0003F510631A683B689B68C3F30A013B68B2
:104C0C001B799B041943BB689B050B431343BA6880
:104C1C005101FA680A4402F5106243F0805343F4E0
:104C2C000043136036E0FB6803F50063DA693B6808
:104C3C001B7803F00F03012101FA03F31B04F9683D
:104C4C0001F500611343CB61BB685A01FB68134447
:104C5C0003F530631B6803F40043002B1AD1BB68C7
:104C6C005A01FB68134403F530631A683B689B6870
:104C7C00C3F30A013B681B799B040B431343BA68CB
:104C8C005101FA680A4402F5306243F0805343F450
:104C9C0000431360002318461437BD465DF8047BAF
:104CAC007047000080B485B000AF786039607B68D5
:104CBC00FB603B681B78BB603B685B78012B61D168
:104CCC00BB685A01FB68134403F510631B6803F0BF
:104CDC000043B3F1004F1FD1BB685A01FB6813446A
:104CEC0003F510631B68BA685101FA680A4402F5AF
:104CFC00106243F000631360BB685A01FB681344F5
:104D0C0003F510631B68BA685101FA680A4402F58E
:104D1C00106243F080431360FB6803F50063DA6BA9
:104D2C003B681B7803F00F03012101FA03F39BB2DC
:104D3C00DB43F96801F500611340CB63FB6803F5B5
:104D4C000063DA693B681B7803F00F03012101FA59
:104D5C0003F39BB2DB43F96801F500611340CB61AF
:104D6C00BB685A01FB68134403F510631A68BB68EF
:104D7C005901FB680B4403F510631946354B13407E
:104D8C000B6060E0BB685A01FB68134403F53063A9
:104D9C001B6803F00043B3F1004F1FD1BB685A01ED
:104DAC00FB68134403F530631B68BA685101FA6859
:104DBC000A4402F5306243F000631360BB685A0189
:104DCC00FB68134403F530631B68BA685101FA6839
:104DDC000A4402F5306243F080431360FB6803F52C
:104DEC000063DA6B3B681B7803F00F03012101FAB7
:104DFC0003F31B04DB43F96801F500611340CB633B
:104E0C00FB6803F50063DA693B681B7803F00F035A
:104E1C00012101FA03F31B04DB43F96801F500617E
:104E2C001340CB61BB685A01FB68134403F5306334
:104E3C001A68BB685901FB680B4403F530631946CB
:104E4C00054B13400B60002318461437BD465DF824
:104E5C00047B7047007833EC0078F3EF80B58AB0B0
:104E6C0002AFF860B9601346FB71FB68FB61BB686D
:104E7C001B78BB61BB685B78012B40F07F81BB6802
:104E8C001B69002B32D1BB695A01FB69134403F532
:104E9C0010631B69BA695101FA690A4402F5106280
:104EAC0023F0FF5323F4C0131361BB695A01FB6950
:104EBC00134403F510631B69BA695101FA690A447A
:104ECC0002F5106243F400231361BB695A01FB69BC
:104EDC00134403F510631B69BA695101FA690A445A
:104EEC0002F51062DB0CDB04136197E0BB695A011D
:104EFC00FB69134403F510631B69BA695101FA6924
:104F0C000A4402F51062DB0CDB041361BB695A0125
:104F1C00FB69134403F510631B69BA695101FA6903
:104F2C000A4402F5106223F0FF5323F4C0131361FB
:104F3C00BB69002B1AD1BB681A69BB689B689A4283
:104F4C0003D9BB689A68BB681A61BB695A01FB69D3
:104F5C00134403F510631B69BA695101FA690A44D9
:104F6C0002F5106243F40023136144E0BB681A6934
:104F7C00BB689B6813445A1EBB689B68B2FBF3F377
:104F8C00FB82BB695A01FB69134403F510631A6970
:104F9C00FB8AD904A44B0B40B9694801F969014457
:104FAC0001F5106113430B61BB681B79012B22D1F6
:104FBC00BB695A01FB69134403F510631B69BA6999
:104FCC005101FA690A4402F5106223F0C0431361DF
:104FDC00BB695A01FB69134403F510631A69FB8A18
:104FEC005B0703F0C043B9694801F969014401F555
:104FFC00106113430B61BB695A01FB69134403F540
:10500C0010631A69BB681B69C3F31203B9694801C1
:10501C00F969014401F5106113430B61FB79012B14
:10502C004BD1BB68DB69002B09D0BB695A01FB690A
:10503C00134403F510631A46BB68DB695361BB6804
:10504C001B79012B28D1FB6903F500639B6803F4E2
:10505C008073002B10D1BB695A01FB69134403F513
:10506C0010631B68BA695101FA690A4402F51062AF
:10507C0043F0005313600FE0BB695A01FB69134402
:10508C0003F510631B68BA695101FA690A4402F509
:10509C00106243F080531360BB695A01FB691344DF
:1050AC0003F510631B68BA695101FA690A4402F5E9
:1050BC00106243F00443136066E1BB695A01FB695B
:1050CC00134403F510631B68BA695101FA690A4469
:1050DC0002F5106243F004431360BB681B79012B8B
:1050EC0015D0BB681B69002B00F04E81FB6903F5E2
:1050FC0000635A6BBB681B7803F00F03012101FAA4
:10510C0003F3F96901F5006113434B633CE1FB695F
:10511C0003F500639B6803F48073002B10D1BB690B
:10512C005A01FB69134403F510631B68BA695101FA
:10513C00FA690A4402F5106243F0005313600FE061
:10514C00BB695A01FB69134403F510631B68BA6908
:10515C005101FA690A4402F5106243F0805313605E
:10516C00BB68D968BB681A78BB681B6998B2FB79B5
:10517C0000930346F86800F0B9F905E1BB695A01E0
:10518C00FB69134403F530631B69BA695101FA6971
:10519C000A4402F53062DB0CDB041361BB695A0173
:1051AC00FB69134403F530631B69BA695101FA6951
:1051BC000A4402F5306223F0FF5323F4C013136149
:1051CC00BB69002B32D1BB681B69002B03D0BB68B9
:1051DC009A68BB681A61BB689A68BB681A62BB693B
:1051EC005A01FB69134403F530631A69BB681B6AE7
:1051FC00C3F31203B9694801F969014401F530613F
:10520C0013430B61BB695A01FB69134403F530630B
:10521C001B69BA695101FA690A4402F5306243F418
:10522C000023136162E000BF0000F81FBB681B691C
:10523C00002B23D1BB695A01FB69134403F530637E
:10524C001A69BB689B68C3F31203B9694801F96911
:10525C00014401F5306113430B61BB695A01FB69D1
:10526C00134403F530631B69BA695101FA690A44A6
:10527C0002F5306243F40023136137E0BB681A690E
:10528C00BB689B6813445A1EBB689B68B2FBF3F364
:10529C00FB82BB689B68FA8A03FB02F2BB681A624A
:1052AC00BB695A01FB69134403F530631A69FB8A25
:1052BC00D904384B0B40B9694801F969014401F52F
:1052CC00306113430B61BB695A01FB69134403F54D
:1052DC0030631A69BB681B6AC3F31203B9694801CE
:1052EC00F969014401F5306113430B61FB79012B22
:1052FC000DD1BB68DB68002B09D0BB68D968BB69D2
:10530C005A01FB69134403F530630A465A61BB68C2
:10531C001B79012B28D1FB6903F500639B6803F40F
:10532C008073002B10D1BB695A01FB69134403F540
:10533C0030631B68BA695101FA690A4402F530629C
:10534C0043F0005313600FE0BB695A01FB6913442F
:10535C0003F530631B68BA695101FA690A4402F516
:10536C00306243F080531360BB695A01FB691344EC
:10537C0003F530631B68BA695101FA690A4402F5F6
:10538C00306243F004431360002318462037BD46B7
:10539C0080BD00BF0000F81F80B487B000AF7860FC
:1053AC0039600023FB600023FB757B683B613B6825
:1053BC005B78012B4AD13B681B785A013B6913443B
:1053CC0003F510631B6803F00043B3F1004F40F08A
:1053DC0086803B681B785A013B69134403F51063C4
:1053EC001B683A68127851013A690A4402F5106256
:1053FC0043F0006313603B681B785A013B6913440C
:10540C0003F510631B683A68127851013A690A4433
:10541C0002F5106243F080431360FB680133FB60BC
:10542C00FB6842F21072934202D90123FB7556E0DD
:10543C003B681B785A013B69134403F510631B68E6
:10544C0003F00043B3F1004FE7D048E03B681B7812
:10545C005A013B69134403F530631B6803F00043A6
:10546C00B3F1004F3BD13B681B785A013B691344A5
:10547C0003F530631B683A68127851013A690A44A3
:10548C0002F5306243F0006313603B681B785A01ED
:10549C003B69134403F530631B683A681278510179
:1054AC003A690A4402F5306243F080431360FB68AA
:1054BC000133FB60FB6842F21072934202D9012364
:1054CC00FB750CE03B681B785A013B69134403F5F0
:1054DC0030631B6803F00043B3F1004FE7D0FB7D52
:1054EC0018461C37BD465DF8047B704780B489B004
:1054FC0000AFF860B96011461A460B46FB711346B3
:10550C00BB80FB687B61BB68FB6197F82830002B84
:10551C0023D1BB8803339B083B610023BB6118E09C
:10552C00FB791A037B69134403F580531A46FB6914
:10553C001B681360FB690133FB61FB690133FB6181
:10554C00FB690133FB61FB690133FB61BB6901330F
:10555C00BB61BA693B699A42E2D3002318462437EF
:10556C00BD465DF8047B704780B48BB000AFF8602B
:10557C00B9601346FB80FB68BB61BB687B62FB8830
:10558C009B089BB27B61FB8803F00303FB83002326
:10559C003B6214E0BB6903F580531A687B6A1A609E
:1055AC007B6A01337B627B6A01337B627B6A0133EA
:1055BC007B627B6A01337B623B6A01333B623A6AF2
:1055CC007B699A42E6D3FB8B002B1ED000233B62F7
:1055DC00BB6903F580531A4607F1100312681A6071
:1055EC003A693B6ADBB2DB0022FA03F3DAB27B6A7C
:1055FC001A703B6A01333B627B6A01337B62FB8B23
:10560C00013BFB83FB8B002BEAD17B6A18462C37C2
:10561C00BD465DF8047B704780B485B000AF786000
:10562C0039607B68FB603B681B78BB603B685B78D0
:10563C00012B2CD1BB685A01FB68134403F5106392
:10564C001B68002B12DBBB68002B0FD0BB685A0108
:10565C00FB68134403F510631B68BA685101FA68C0
:10566C000A4402F5106223F080431360BB685A01B0
:10567C00FB68134403F510631B68BA685101FA68A0
:10568C000A4402F5106243F4001313602BE0BB686C
:10569C005A01FB68134403F530631B68002B12DBC3
:1056AC00BB68002B0FD0BB685A01FB68134403F591
:1056BC0030631B68BA685101FA680A4402F530621B
:1056CC0023F080431360BB685A01FB68134403F555
:1056DC0030631B68BA685101FA680A4402F53062FB
:1056EC0043F400131360002318461437BD465DF8CD
:1056FC00047B704780B485B000AF786039607B68FC
:10570C00FB603B681B78BB603B685B78012B28D146
:10571C00BB685A01FB68134403F510631B68BA6835
:10572C005101FA680A4402F5106223F40013136065
:10573C003B681B79032B03D03B681B79022B38D1B8
:10574C00BB685A01FB68134403F510631B68BA6805
:10575C005101FA680A4402F5106243F08053136059
:10576C0027E0BB685A01FB68134403F530631B68E0
:10577C00BA685101FA680A4402F5306223F4001346
:10578C0013603B681B79032B03D03B681B79022BFE
:10579C000FD1BB685A01FB68134403F530631B68D7
:1057AC00BA685101FA680A4402F5306243F080533A
:1057BC001360002318461437BD465DF8047B704710
:1057CC0080B485B000AF78600B46FB707B68FB60E3
:1057DC00FB6803F500631B68FA6802F5006223F4AA
:1057EC00FE631360FB6803F500631A68FB781B010A
:1057FC0003F4FE63F96801F5006113430B600023A9
:10580C0018461437BD465DF8047B704780B485B0EC
:10581C0000AF78607B68FB60FB6803F560631B6816
:10582C00FA6802F5606223F003031360FB6803F56A
:10583C0000635B68FA6802F5006223F002035360B0
:10584C00002318461437BD465DF8047B704780B4BE
:10585C0085B000AF78607B68FB60FB6803F5606324
:10586C001B68FA6802F5606223F003031360FB689F
:10587C0003F500635B68FA6802F5006243F002030B
:10588C005360002318461437BD465DF8047B7047FF
:10589C0080B485B000AF78607B685B69FB607B6827
:1058AC009B69FA681340FB60FB6818461437BD46C9
:1058BC005DF8047B704780B485B000AF78607B687E
:1058CC00FB60FB6803F500639B69BB60FB6803F539
:1058DC000063DB69BA681340BB60BB681B0C1846DD
:1058EC001437BD465DF8047B704780B485B000AFBB
:1058FC0078607B68FB60FB6803F500639B69BB60A9
:10590C00FB6803F50063DB69BA681340BB60BB68D6
:10591C009BB218461437BD465DF8047B704780B4C3
:10592C0085B000AF78600B46FB707B68FB60FB7842
:10593C005A01FB68134403F530639B68BB60FB683A
:10594C0003F500635B69BA681340BB60BB6818461B
:10595C001437BD465DF8047B704780B487B000AF48
:10596C0078600B46FB707B687B617B6903F5006399
:10597C001B693B617B6903F500635B6BFB60FB7828
:10598C0003F00F03FA6822FA03F3DB01DBB23A6986
:10599C0013433B61FB785A017B69134403F5106395
:1059AC009B683A691340BB60BB6818461C37BD4600
:1059BC005DF8047B704780B483B000AF78607B687F
:1059CC005B6903F0010318460C37BD465DF8047B98
:1059DC00704780B485B000AF78607B68FB60FB6873
:1059EC0003F510631B68FA6802F5106223F4FF6379
:1059FC0023F007031360FB6803F500635B68FA6828
:105A0C0002F5006243F48073536000231846143788
:105A1C00BD465DF8047B704780B487B000AFF8607A
:105A2C000B467A60FB72FB687B61FB683C3304338A
:105A3C001B683B613B69264A93420AD97B6903F593
:105A4C0030631B6803F00043B3F1004F01D1002316
:105A5C0037E07B6903F530631A46002313617B69D9
:105A6C0003F530631B697A6902F5306243F4002355
:105A7C0013617B6903F530631B697A6902F5306247
:105A8C0043F0180313617B6903F530631B697A6972
:105A9C0002F5306243F0C0431361FB7A012B0FD146
:105AAC007B6903F530631A467B6853617B6903F5A8
:105ABC0030631B687A6902F5306243F0802313600F
:105ACC00002318461C37BD465DF8047B704700BFA9
